{
    "abi": [
        {
            "type": "constructor",
            "inputs": [
                {
                    "name": "_treasury",
                    "type": "address",
                    "internalType": "address"
                }
            ],
            "stateMutability": "nonpayable"
        },
        {
            "type": "function",
            "name": "allVaults",
            "inputs": [
                {
                    "name": "",
                    "type": "uint256",
                    "internalType": "uint256"
                }
            ],
            "outputs": [
                {
                    "name": "",
                    "type": "address",
                    "internalType": "address"
                }
            ],
            "stateMutability": "view"
        },
        {
            "type": "function",
            "name": "createVault",
            "inputs": [],
            "outputs": [
                {
                    "name": "vault",
                    "type": "address",
                    "internalType": "address"
                }
            ],
            "stateMutability": "nonpayable"
        },
        {
            "type": "function",
            "name": "executionFee",
            "inputs": [],
            "outputs": [
                {
                    "name": "",
                    "type": "uint256",
                    "internalType": "uint256"
                }
            ],
            "stateMutability": "view"
        },
        {
            "type": "function",
            "name": "getAllVaults",
            "inputs": [],
            "outputs": [
                {
                    "name": "",
                    "type": "address[]",
                    "internalType": "address[]"
                }
            ],
            "stateMutability": "view"
        },
        {
            "type": "function",
            "name": "getUserVaults",
            "inputs": [
                {
                    "name": "user",
                    "type": "address",
                    "internalType": "address"
                }
            ],
            "outputs": [
                {
                    "name": "",
                    "type": "address[]",
                    "internalType": "address[]"
                }
            ],
            "stateMutability": "view"
        },
        {
            "type": "function",
            "name": "isVault",
            "inputs": [
                {
                    "name": "",
                    "type": "address",
                    "internalType": "address"
                }
            ],
            "outputs": [
                {
                    "name": "",
                    "type": "bool",
                    "internalType": "bool"
                }
            ],
            "stateMutability": "view"
        },
        {
            "type": "function",
            "name": "protocolOwner",
            "inputs": [],
            "outputs": [
                {
                    "name": "",
                    "type": "address",
                    "internalType": "address"
                }
            ],
            "stateMutability": "view"
        },
        {
            "type": "function",
            "name": "protocolTreasury",
            "inputs": [],
            "outputs": [
                {
                    "name": "",
                    "type": "address",
                    "internalType": "address"
                }
            ],
            "stateMutability": "view"
        },
        {
            "type": "function",
            "name": "updateExecutionFee",
            "inputs": [
                {
                    "name": "_executionFee",
                    "type": "uint256",
                    "internalType": "uint256"
                }
            ],
            "outputs": [],
            "stateMutability": "nonpayable"
        },
        {
            "type": "function",
            "name": "updateProtocolOwner",
            "inputs": [
                {
                    "name": "_owner",
                    "type": "address",
                    "internalType": "address"
                }
            ],
            "outputs": [],
            "stateMutability": "nonpayable"
        },
        {
            "type": "function",
            "name": "updateProtocolTreasury",
            "inputs": [
                {
                    "name": "_treasury",
                    "type": "address",
                    "internalType": "address"
                }
            ],
            "outputs": [],
            "stateMutability": "nonpayable"
        },
        {
            "type": "function",
            "name": "userVaults",
            "inputs": [
                {
                    "name": "",
                    "type": "address",
                    "internalType": "address"
                },
                {
                    "name": "",
                    "type": "uint256",
                    "internalType": "uint256"
                }
            ],
            "outputs": [
                {
                    "name": "",
                    "type": "address",
                    "internalType": "address"
                }
            ],
            "stateMutability": "view"
        },
        {
            "type": "event",
            "name": "VaultCreated",
            "inputs": [
                {
                    "name": "user",
                    "type": "address",
                    "indexed": true,
                    "internalType": "address"
                },
                {
                    "name": "vault",
                    "type": "address",
                    "indexed": false,
                    "internalType": "address"
                }
            ],
            "anonymous": false
        }
    ],
    "bytecode": {
        "object": "0x608034608857601f61374838819003918201601f19168301916001600160401b03831184841017608c57808492602094604052833981010312608857516001600160a01b03811690819003608857600380546001600160a01b03199081169290921790556004805490911633179055662386f26fc100006005556040516136a790816100a18239f35b5f80fd5b634e487b7160e01b5f52604160045260245ffdfe60806040526004361015610011575f80fd5b5f3560e01c80632d91bbdb1461052257806340e9903b146105055780635d12928b146103d4578063652b9b4114610397578063803db96d1461036f5780639094a91e146102f7578063926f86ce146102a757806397331bf9146102085780639c841fef146101ab578063c1d6ba6914610183578063e7f3c69c146100cf5763f5d064861461009d575f80fd5b346100cb5760203660031901126100cb576100c360018060a01b036004541633146105dc565b600435600555005b5f80fd5b346100cb5760203660031901126100cb576001600160a01b036100f061056f565b165f525f60205260405f206040519081602082549182815201915f5260205f20905f5b81811061016457505050819003601f01601f191681019067ffffffffffffffff8211818310176101505761014c8291826040528261059a565b0390f35b634e487b7160e01b5f52604160045260245ffd5b82546001600160a01b0316845260209093019260019283019201610113565b346100cb575f3660031901126100cb576004546040516001600160a01b039091168152602090f35b346100cb5760403660031901126100cb576101c461056f565b6024359060018060a01b03165f525f60205260405f2080548210156100cb576020916101ef91610585565b905460405160039290921b1c6001600160a01b03168152f35b346100cb575f3660031901126100cb5760405180602060015491828152019060015f527fb10e2d527612073b26eecdfd717e6a320cf44b4afac2b0732d9fcbe2b7fa0cf6905f5b81811061028857505050819003601f01601f191681019067ffffffffffffffff8211818310176101505761014c8291826040528261059a565b82546001600160a01b031684526020909301926001928301920161024f565b346100cb5760203660031901126100cb576102c061056f565b6102d560018060a01b036004541633146105dc565b600380546001600160a01b0319166001600160a01b0392909216919091179055005b346100cb5760203660031901126100cb576004356001548110156100cb5760015481101561035b5760015f527fb10e2d527612073b26eecdfd717e6a320cf44b4afac2b0732d9fcbe2b7fa0cf601546040516001600160a01b039091168152602090f35b634e487b7160e01b5f52603260045260245ffd5b346100cb575f3660031901126100cb576003546040516001600160a01b039091168152602090f35b346100cb5760203660031901126100cb576001600160a01b036103b861056f565b165f526002602052602060ff60405f2054166040519015158152f35b346100cb575f3660031901126100cb57600354604051906001600160a01b031661305d80830167ffffffffffffffff811184821017610150576040928492610615843933825260208201520301905ff080156104fa5760018060a01b0316335f525f60205260405f208054600160401b8110156101505761045a91600182018155610585565b81549060031b9083821b9160018060a01b03901b1916179055805f52600260205260405f20600160ff1982541617905560015490600160401b821015610150576104ae826001602094016001556001610585565b81549060031b9083821b9160018060a01b03901b19161790556040518181527f5d9c31ffa0fecffd7cf379989a3c7af252f0335e0d2a1320b55245912c781f53833392a2604051908152f35b6040513d5f823e3d90fd5b346100cb575f3660031901126100cb576020600554604051908152f35b346100cb5760203660031901126100cb5761053b61056f565b60045490610553336001600160a01b038416146105dc565b6001600160a01b03166001600160a01b03199190911617600455005b600435906001600160a01b03821682036100cb57565b805482101561035b575f5260205f2001905f90565b60206040818301928281528451809452019201905f5b8181106105bd5750505090565b82516001600160a01b03168452602093840193909201916001016105b0565b156105e357565b60405162461bcd60e51b81526020600482015260096024820152682737ba1037bbb732b960b91b6044820152606490fdfe60c0346100ef57601f61305d38819003918201601f19168301916001600160401b038311848410176100f35780849260409485528339810103126100ef57610052602061004b83610107565b9201610107565b608091909152600480546001600160a01b0319166001600160a01b039092169190911790556002805460ff191660031790553360a052604051612f41908161011c82396080518181816102860152818161038801528181610417015281816104d90152818161082c0152818161088f015281816108e801528181610e3501528181610f1701526118db015260a051818181610c4301526114b10152f35b5f80fd5b634e487b7160e01b5f52604160045260245ffd5b51906001600160a01b03821682036100ef5756fe6080604052600436101561001a575b3615610018575f80fd5b005b5f3560e01c80630e4f2546146101795780632bd420f9146101745780632f0261ba1461016f578063338b5dea1461016a57806346904840146101655780634cddae2814610160578063598faf361461015b5780636b0b920014610156578063887a2f7214610151578063897293a41461014c5780638a524fa7146101475780638da5cb5b146101425780639e281a981461013d578063b49a60bb14610138578063c45a015514610133578063cc63604a1461012e578063cfc0cc3414610129578063eedc966a14610124578063f00611ee1461011f578063f14210a61461011a578063f6326fb3146101155763f938b5200361000e57610f8d565b610f06565b610e1b565b610dfe565b610d64565b610cab565b610c72565b610c2e565b610b4c565b6108be565b61087a565b61080d565b6107eb565b610567565b6104c4565b610402565b610377565b61034f565b61025f565b61022e565b6101e4565b34610195575f3660031901126101955760205f54604051908152f35b5f80fd5b6001600160a01b0381160361019557565b6001600160e01b031981160361019557565b6040906003190112610195576004356101d481610199565b906024356101e1816101aa565b90565b3461019557602060ff6102226101f9366101bc565b9060018060a01b03165f526001845260405f209063ffffffff60e01b165f5260205260405f2090565b54166040519015158152f35b346101955760203660031901126101955761001860043561025a61025061149c565b600354101561101b565b6126f7565b346101955760403660031901126101955760043561027c81610199565b602435906102b4337f00000000000000000000000000000000000000000000000000000000000000006001600160a01b031614611067565b6001600160a01b0316906102c982151561109f565b6102d48115156110db565b604051906323b872dd60e01b5f52336004523060245260445260205f60648180865af160015f5114811615610330575b6040919091525f6060521561031557005b635274afe760e01b5f526001600160a01b031660045260245ffd5b6001811516610346573d15833b15151616610304565b503d5f823e3d90fd5b34610195575f366003190112610195576004546040516001600160a01b039091168152602090f35b5f366003190112610195576103b6337f00000000000000000000000000000000000000000000000000000000000000006001600160a01b031614611067565b6103c1341515611118565b6003543481018091116103fd576003557f56fc1ecd44d7a7b83281447c749d7fa51ff92f790eb5cf03fdb5e1d1a4cd6f576020604051348152a1005b611152565b3461019557610410366101bc565b90610445337f00000000000000000000000000000000000000000000000000000000000000006001600160a01b031614611067565b6001600160a01b0316610459811515611173565b6001600160e01b0319821691610496906104748415156111b0565b825f52600160205260405f209063ffffffff60e01b165f5260205260405f2090565b805460ff191690557ffec4648dc7e3a6e411c303ae86d59e226a72ddeb5762319ac29d27511f01ca855f80a3005b34610195576104d2366101bc565b90610507337f00000000000000000000000000000000000000000000000000000000000000006001600160a01b031614611067565b6001600160a01b031661051b811515611173565b6001600160e01b0319821691610536906104748415156111b0565b805460ff191660011790557fd092f291126171673a5c6bd81cb39fd6846fd29094022a0432518cf8e7f76f0f5f80a3005b60203660031901126101955760043560045460ff8160a01c166107b95760ff60a01b1916600160a01b1760045561059c61149c565b6105aa81600354101561101b565b6105b3826126f7565b6105bc82611203565b50905f8060018401819060016105d7825460ff9060d01c1690565b6105e08161093c565b146107ad575b806105f361060c9261296b565b6105ff60058801612a3f565b546001600160a01b031690565b90604051908161061f8160038a01611278565b03925af161062b611373565b90156106fb57506106c8916106bc5f8080806106ab6106a4600a984260088a015561066061065b826003546113d1565b600355565b61069f8480808061068a61067e61067e60045460018060a01b031690565b6001600160a01b031690565b600a8704905af1610699611373565b506113de565b611420565b600a900490565b335af16106b6611373565b50611436565b01805461ff0019169055565b7f0c61996d0e102905c02e7d181cec9e73f0ba00f7b4f6164a9908275c566479e25f80a26004805460ff60a01b19169055005b7f68a79aad7d48e3bef5d7a5f697de6c584bcd2b62c9c402393c0db95a7dcaf81261076385610753600a870161073e610739825460ff9060081c1690565b6113b2565b61ff0082549160081b169061ff001916179055565b6040519081529081906020820190565b0390a1805190816107a85760405162461bcd60e51b81526020600482015260126024820152711050d51253d397d0d0531317d1905253115160721b6044820152606490fd5b602001fd5b600286015491506105e6565b60405162461bcd60e51b815260206004820152600a6024820152695265656e7472616e637960b01b6044820152606490fd5b34610195575f36600319011261019557602061080561149c565b604051908152f35b3461019557602036600319011261019557600a61086b60043561085a337f00000000000000000000000000000000000000000000000000000000000000006001600160a01b031614611067565b6108665f548210611505565b611203565b5001805460ff19166001179055005b34610195575f366003190112610195576040517f00000000000000000000000000000000000000000000000000000000000000006001600160a01b03168152602090f35b34610195576040366003190112610195576100186004356108de81610199565b60243590610916337f00000000000000000000000000000000000000000000000000000000000000006001600160a01b031614611067565b6001600160a01b031661092a81151561109f565b6109358215156110db565b3390612ad1565b6003111561094657565b634e487b7160e01b5f52602160045260245ffd5b906109648261093c565b52565b805180835260209291819084018484015e5f828201840152601f01601f1916010190565b90602080835192838152019201905f5b8181106109a85750505090565b825180516001600160a01b03908116865260208281015190911681870152604091820151918601919091526060909401939092019160010161099b565b80516001600160a01b031682526101e1916020828101516001600160e01b0319169082015260408281015160ff1690820152606082810151151590820152610a356080830151608083019061095a565b60a082015160a0820152610100610a72610a6060c085015161012060c0860152610120850190610967565b60e085015184820360e086015261098b565b9201519061010081840391015261098b565b90610100810182519061010083528151809152602061012084019201905f5b818110610b10575050509060e080610aca6101e194602087015185820360208701526109e5565b9460408101516040850152606081015160608501526080810151608085015260a081015160a0850152610b0660c082015160c086019015159052565b015160ff16910152565b9091926020606060019260408751858060a01b03815116835284810151610b368161093c565b8386015201516040820152019401929101610aa3565b34610195575f366003190112610195575f54610b6781611544565b90610b756040519283611351565b8082525f8080527f290decd9548b62a8d60345a988386fc84ba6bc95484008f6362f93160ef3e563602084015b838310610c1057846040518091602082016020835281518091526040830190602060408260051b8601019301915f905b828210610be157505050500390f35b91936001919395506020610c008192603f198a82030186528851610a84565b9601920192018594939192610bd2565b600b6020600192610c20856117bf565b815201920192019190610ba2565b34610195575f366003190112610195576040517f00000000000000000000000000000000000000000000000000000000000000006001600160a01b03168152602090f35b34610195576020366003190112610195576020610c9060043561183f565b6040519015158152f35b9060206101e1928181520190610a84565b3461019557602036600319011261019557610d60610d54610d4e6004355f60e0604051610cd7816112f6565b60608152604051610ce781611318565b8381528360208201528360408201528360608201528360808201528360a0820152606060c0820152606083820152606061010082015260208201528260408201528260608201528260808201528260a08201528260c082015201526108665f548210611505565b506117bf565b60405191829182610c9a565b0390f35b346101955760203660031901126101955760246020600435610d8581610199565b6040516370a0823160e01b815230600482015292839182906001600160a01b03165afa8015610df957610d60915f91610dca575b506040519081529081906020820190565b610dec915060203d602011610df2575b610de48183611351565b810190611482565b5f610db9565b503d610dda565b611491565b34610195575f366003190112610195576020600354604051908152f35b3461019557602036600319011261019557600435610e63337f00000000000000000000000000000000000000000000000000000000000000006001600160a01b031614611067565b610e6e8115156110db565b4760035481039081116103fd578111610eca57610e9a5f80808085335af1610e94611373565b5061188d565b60405190815233907f94b2de810873337ed265c5f8cf98c9cffefa06b8607f9a2f1fbaebdfbcfbef1c90602090a2005b60405162461bcd60e51b8152602060048201526014602482015273496e73756666696369656e742062616c616e636560601b6044820152606490fd5b5f36600319011261019557610f45337f00000000000000000000000000000000000000000000000000000000000000006001600160a01b031614611067565b610f50341515611118565b6040513481527f6c703791f399558807424f489ccd811c72b4ff0b74af547264fad7c646776df060203392a2005b90816101209103126101955790565b346101955760a03660031901126101955760043567ffffffffffffffff811161019557366023820112156101955780600401359067ffffffffffffffff8211610195573660246060840283010111610195576024359067ffffffffffffffff821161019557610d6092611007610753933690600401610f7e565b6044359060643592602460843595016118cf565b1561102257565b60405162461bcd60e51b815260206004820152601e60248201527f496e73756666696369656e7420657865637574696f6e2062616c616e636500006044820152606490fd5b1561106e57565b60405162461bcd60e51b81526020600482015260096024820152682737ba1037bbb732b960b91b6044820152606490fd5b156110a657565b60405162461bcd60e51b815260206004820152600d60248201526c24b73b30b634b2103a37b5b2b760991b6044820152606490fd5b156110e257565b60405162461bcd60e51b815260206004820152600e60248201526d125b9d985b1a5908185b5bdd5b9d60921b6044820152606490fd5b1561111f57565b60405162461bcd60e51b815260206004820152600b60248201526a139bc8115512081cd95b9d60aa1b6044820152606490fd5b634e487b7160e01b5f52601160045260245ffd5b919082018092116103fd57565b1561117a57565b60405162461bcd60e51b815260206004820152600e60248201526d125b9d985b1a59081d185c99d95d60921b6044820152606490fd5b156111b757565b60405162461bcd60e51b815260206004820152601060248201526f24b73b30b634b21039b2b632b1ba37b960811b6044820152606490fd5b634e487b7160e01b5f52603260045260245ffd5b5f5481101561123b575f808052600b919091027f290decd9548b62a8d60345a988386fc84ba6bc95484008f6362f93160ef3e5630191565b6111ef565b90600182811c9216801561126e575b602083101461125a57565b634e487b7160e01b5f52602260045260245ffd5b91607f169161124f565b5f929181549161128783611240565b92600181169081156112cf57506001146112a057505050565b90919293505f5260205f205f905b8382106112bb5750500190565b6001816020925484860152019101906112ae565b60ff191683525050811515909102019150565b634e487b7160e01b5f52604160045260245ffd5b610100810190811067ffffffffffffffff82111761131357604052565b6112e2565b610120810190811067ffffffffffffffff82111761131357604052565b6060810190811067ffffffffffffffff82111761131357604052565b90601f8019910116810190811067ffffffffffffffff82111761131357604052565b3d156113ad573d9067ffffffffffffffff821161131357604051916113a2601f8201601f191660200184611351565b82523d5f602084013e565b606090565b60ff1660ff81146103fd5760010190565b5f198101919082116103fd57565b919082039182116103fd57565b156113e557565b60405162461bcd60e51b8152602060048201526013602482015272119959481d1c985b9cd9995c8819985a5b1959606a1b6044820152606490fd5b906009820291808304600914901517156103fd57565b1561143d57565b60405162461bcd60e51b815260206004820152601c60248201527f4578656375746f7220666565207472616e73666572206661696c6564000000006044820152606490fd5b90816020910312610195575190565b6040513d5f823e3d90fd5b6040516340e9903b60e01b81526020816004817f00000000000000000000000000000000000000000000000000000000000000006001600160a01b03165afa908115610df9575f916114ec575090565b6101e1915060203d602011610df257610de48183611351565b1561150c57565b60405162461bcd60e51b815260206004820152601060248201526f496e76616c696420737472617465677960801b6044820152606490fd5b67ffffffffffffffff81116113135760051b60200190565b90815461156881611544565b926115766040519485611351565b81845260208401905f5260205f205f915b8383106115945750505050565b600260206001926040516115a781611335565b60ff8654868060a01b038116835260a01c166115c28161093c565b83820152848601546040820152815201920192019190611587565b6109648261093c565b9060405191825f8254926115f984611240565b80845293600181169081156116645750600114611620575b5061161e92500383611351565b565b90505f9291925260205f20905f915b81831061164857505090602061161e928201015f611611565b602091935080600191548385890101520191019091849261162f565b90506020925061161e94915060ff191682840152151560051b8201015f611611565b90815461169281611544565b926116a06040519485611351565b81845260208401905f5260205f205f915b8383106116be5750505050565b600360206001926040516116d181611335565b848060a01b038654168152848060a01b03858701541683820152600286015460408201528152019201920191906116b1565b9060405161171081611318565b6101006117ba6004839561178861177f82546117416117348260018060a01b031690565b6001600160a01b03168952565b6001600160e01b0319604082901b16602089015260ff60c082901c16604089015261177660c882901c60ff16151560608a0152565b60d01c60ff1690565b608087016115dd565b600181015460a086015261179e600282016115e6565b60c08601526117af60038201611686565b60e086015201611686565b910152565b9061161e6040516117cf816112f6565b60e0611837600a83966117e18161155c565b85526117ef60018201611703565b6020860152600681015460408601526007810154606086015260088101546080860152600981015460a0860152015461182e60ff8216151560c0860152565b60081c60ff1690565b60ff16910152565b5f90303b15610195576040519063178130dd60e11b825260048201525f81602481305afa9081611878575b506118725790565b50600190565b6118859192505f90611351565b5f905f61186a565b1561189457565b60405162461bcd60e51b8152602060048201526013602482015272115512081d1c985b9cd9995c8819985a5b1959606a1b6044820152606490fd5b959490939192611909337f00000000000000000000000000000000000000000000000000000000000000006001600160a01b031614611067565b611914428311611c30565b61191f851515611c7c565b61192a811515611cb8565b6119466001600160a01b0361193e86611cf8565b161515611d02565b602084016119676001600160e01b031961195f83611d46565b161515611d50565b61196f611d9c565b505061197b5f546113c3565b9761198589611203565b50965f5b818110611c13575050506119eb6119cb60018801926119c66119aa89611cf8565b85546001600160a01b0319166001600160a01b03909116178555565b611d46565b825463ffffffff60a01b191660409190911c63ffffffff60a01b16178255565b611a146119fa60408701611eaa565b825460ff60c01b191660c09190911b60ff60c01b16178255565b6060850190611a3f611a2583611eb8565b825460ff60c81b191690151560c81b60ff60c81b16178255565b611a566080870191611a5083611e2e565b90611ec5565b6001611a8660a0880135928360028b0155611a81611a7760c08b018b611ee9565b9060038d01611f7a565b611e2e565b611a8f8161093c565b03611c005750611aa1611aa691611eb8565b61209a565b9493945b5f94600487019760e08601965b611ac188886120df565b9050811015611b2e5780611b28611ae4600193611ade8c8c6120df565b90611de8565b611afa611af361067e83611cf8565b1515612115565b611b13611b0c61067e60208401611cf8565b1515612161565b611b22604082013515156121ad565b8c612212565b01611ab7565b50929550929650945f9460058201976101008601965b611b4e88886120df565b9050811015611b995780611b93611b6b600193611ade8c8c6120df565b611b84611b7d61067e60208401611cf8565b1515612284565b611b22604082013515156122c6565b01611b44565b50919397509195611bd89550600a9450600684015560078301555f6008830155600982015501611bcd8160ff198154169055565b805461ff0019169055565b807f019c06b860251593f8cc023cca35c7c482867df58804fd2963b3aebe5e7f8ef85f80a290565b611c0b915015612043565b949394611aaa565b80611c2a611c246001938587611de8565b8b611e38565b01611989565b15611c3757565b60405162461bcd60e51b815260206004820152601c60248201527f457870697279206d75737420626520696e2074686520667574757265000000006044820152606490fd5b15611c8357565b60405162461bcd60e51b815260206004820152600d60248201526c4e6f20636f6e646974696f6e7360981b6044820152606490fd5b15611cbf57565b60405162461bcd60e51b8152602060048201526011602482015270125b9d985b1a59081b585e105b5bdd5b9d607a1b6044820152606490fd5b356101e181610199565b15611d0957565b60405162461bcd60e51b8152602060048201526015602482015274125b9d985b1a59081858dd1a5bdb881d185c99d95d605a1b6044820152606490fd5b356101e1816101aa565b15611d5757565b60405162461bcd60e51b815260206004820152601760248201527f496e76616c696420616374696f6e2073656c6563746f720000000000000000006044820152606490fd5b5f54600160401b81101561131357600181015f555f5481101561123b575f808052600b919091027f290decd9548b62a8d60345a988386fc84ba6bc95484008f6362f93160ef3e5630191565b919081101561123b576060020190565b805482101561123b575f5260205f209060011b01905f90565b634e487b7160e01b5f525f60045260245ffd5b6003111561019557565b356101e181611e24565b8054600160401b81101561131357611e5591600182018155611df8565b919091611ea557604081611e6f600193356119aa81610199565b6020810135611e7d81611e24565b611e868161093c565b845460ff60a01b191660a09190911b60ff60a01b161784550135910155565b611e11565b3560ff811681036101955790565b3580151581036101955790565b90611ecf8161093c565b815460ff60d01b191660d09190911b60ff60d01b16179055565b903590601e1981360301821215610195570180359067ffffffffffffffff82116101955760200191813603831361019557565b919091601f8311611f2d575b505050565b818311611f3957505050565b5f5260205f206020601f830160051c9210611f72575b81601f9101920160051c03905f5b82811015611f28575f82820155600101611f5d565b5f9150611f4f565b90929167ffffffffffffffff811161131357611fa081611f9a8454611240565b84611f1c565b5f601f8211600114611fde578190611fcf9394955f92611fd3575b50508160011b915f199060031b1c19161790565b9055565b013590505f80611fbb565b601f19821694611ff1845f5260205f2090565b915f5b87811061202b575083600195969710612012575b505050811b019055565b01355f19600384901b60f8161c191690555f8080612008565b90926020600181928686013581550194019101611ff4565b1561204a57565b60405162461bcd60e51b815260206004820152602260248201527f4554482076616c7565206f6e6c7920666f722070617961626c6520616374696f6044820152616e7360f01b6064820152608490fd5b156120a157565b60405162461bcd60e51b8152602060048201526016602482015275416374696f6e206d7573742062652070617961626c6560501b6044820152606490fd5b903590601e1981360301821215610195570180359067ffffffffffffffff82116101955760200191606082023603831361019557565b1561211c57565b60405162461bcd60e51b815260206004820152601760248201527f496e76616c696420616c6c6f77616e636520746f6b656e0000000000000000006044820152606490fd5b1561216857565b60405162461bcd60e51b815260206004820152601960248201527f496e76616c696420616c6c6f77616e6365207370656e646572000000000000006044820152606490fd5b156121b457565b60405162461bcd60e51b815260206004820152601860248201527f496e76616c696420616c6c6f77616e636520616d6f756e7400000000000000006044820152606490fd5b805482101561123b575f52600360205f20910201905f90565b8054600160401b8110156113135761222f916001820181556121f9565b919091611ea557604081612249600293356119aa81610199565b61227d602082013561225a81610199565b6001860180546001600160a01b0319166001600160a01b03909216919091179055565b0135910155565b1561228b57565b60405162461bcd60e51b8152602060048201526013602482015272496e76616c6964207472616e7366657220746f60681b6044820152606490fd5b156122cd57565b60405162461bcd60e51b815260206004820152601760248201527f496e76616c6964207472616e7366657220616d6f756e740000000000000000006044820152606490fd5b1561231957565b60405162461bcd60e51b815260206004820152600f60248201526e14dd1c985d1959de481c185d5cd959608a1b6044820152606490fd5b1561235757565b60405162461bcd60e51b815260206004820152601060248201526f14dd1c985d1959de48195e1c1a5c995960821b6044820152606490fd5b1561239657565b60405162461bcd60e51b815260206004820152600f60248201526e436f6f6c646f776e2061637469766560881b6044820152606490fd5b156123d457565b60405162461bcd60e51b815260206004820152601160248201527014dd1c985d1959de48191a5cd8589b1959607a1b6044820152606490fd5b1561241457565b60405162461bcd60e51b815260206004820152601260248201527110dbdb991a5d1a5bdb9cc81b9bdd081b595d60721b6044820152606490fd5b1561245557565b60405162461bcd60e51b815260206004820152601060248201526f496e76616c69642063616c6c6461746160801b6044820152606490fd5b1561249457565b60405162461bcd60e51b81526020600482015260116024820152700a6cad8cac6e8dee440dad2e6dac2e8c6d607b1b6044820152606490fd5b156124d457565b60405162461bcd60e51b81526020600482015260126024820152711058dd1a5bdb881b9bdd08185b1b1bddd95960721b6044820152606490fd5b1561251557565b60405162461bcd60e51b8152602060048201526012602482015271416374696f6e206e6f742070617961626c6560701b6044820152606490fd5b1561255657565b60405162461bcd60e51b815260206004820152600c60248201526b115512081c995c5d5a5c995960a21b6044820152606490fd5b1561259157565b60405162461bcd60e51b815260206004820152601560248201527411551208195e18d959591cc81b585e105b5bdd5b9d605a1b6044820152606490fd5b156125d557565b60405162461bcd60e51b815260206004820152601960248201527f5661756c7420756e646572636f6c6c61746572616c697a6564000000000000006044820152606490fd5b1561262157565b60405162461bcd60e51b8152602060048201526016602482015275092dce6eaccccd2c6d2cadce840ecc2ead8e8408aa8960531b6044820152606490fd5b1561266657565b60405162461bcd60e51b815260206004820152601860248201527f416d6f756e742065786365656473206d6178416d6f756e7400000000000000006044820152606490fd5b156126b257565b60405162461bcd60e51b815260206004820152601a60248201527f5472616e736665727320657863656564206d6178416d6f756e740000000000006044820152606490fd5b906127045f548310611505565b61278961278461271384611203565b509361277f612760600a8701546127396127346127308360ff1690565b1590565b612312565b61274860098901544210612350565b61182e60088901548015908115612952575b5061238f565b60ff61277761277160025460ff1690565b60ff1690565b9116106123cd565b612b29565b61240d565b6127ab600383016127a6600461279f8354611240565b101561244e565b6115e6565b60208101519061282e6128296128226001870154946127f56127d78763ffffffff60e01b9060401b1690565b916001600160e01b031983166001600160e01b03199091161461248d565b6001600160a01b0386165f9081526001602052604090209063ffffffff60e01b165f5260205260405f2090565b5460ff1690565b6124cd565b60d082901c60ff1661283f8161093c565b806128e357506128669161285a919060c01c60ff1690612bfc565b6006840154101561265f565b5f5f600584018054905b81831061288a57505050600661161e9293015410156126ab565b90919260019061289a85846121f9565b5080549091906128b2906001600160a01b031661067e565b156128cf5760026128c592015490611166565b935b019190612870565b60026128dd92015490611166565b936128c7565b600191506128f08161093c565b0361294c576129049060c81c60ff1661250e565b612947600283015461291781151561254f565b612927600685015482111561258a565b612940476003549061293b828210156125ce565b6113d1565b101561261a565b612866565b50612866565b612962915060078b015490611166565b4210155f61275a565b905f5b600383018054821015612a395781612985916121f9565b50805490919061299d906001600160a01b031661067e565b6001830154604051636eb1769f60e11b81523060048201526001600160a01b0391821660248201819052909392916020908590604490829086165afa908115610df9576003956001955f93612a16575b5060020154809210612a05575b50505001905061296e565b612a0e92612c77565b5f80806129fa565b6002919350612a329060203d8111610df257610de48183611351565b92906129ed565b50509050565b905f5b8254811015612acc5780612a58600192856121f9565b50805460a084901b849003166001600160a01b031680612aa957505f808080846002612a9561067e61067e8b612aa39a015460018060a01b031690565b910154905af1610e94611373565b01612a42565b83820154612ac792906002906001600160a01b031691015491612ad1565b612aa3565b509050565b916040519163a9059cbb60e01b5f5260018060a01b031660045260245260205f60448180865af160015f5114811615612b13575b604091909152156103155750565b6001811516610346573d15833b15151616612b05565b5f54811015612bf757612b3b90611203565b508054905f5b828110612b5057505050600190565b612b5a8183611df8565b50805490612b7d612b736001600160a01b038416612dcb565b9260a01c60ff1690565b612b868161093c565b80612ba75750600101541115612ba0576001905b01612b41565b5050505f90565b612bb08161093c565b60018103612bcb5750600101541015612ba057600190612b9a565b80612bd760029261093c565b14612be7575b5050600190612b9a565b6001015403612ba0575f80612bdd565b505f90565b90611fe060ff82169160051b1690808204602014901517156103fd5780600401806004116103fd578251602483018092116103fd5710612c3e57016024015190565b60405162461bcd60e51b8152602060048201526011602482015270417267206f7574206f6620626f756e647360781b6044820152606490fd5b60405163095ea7b360e01b5f9081526001600160a01b03841660045260248590529193929160209060448180885af19060015f5114821615612d21575b60405215612cc157505050565b612ccb8184612e6b565b15612d035790612cdb9183612ed0565b15612ce35750565b635274afe760e01b5f9081526001600160a01b0391909116600452602490fd5b635274afe760e01b5f9081526001600160a01b038416600452602490fd5b90843b15153d15161690612cb4565b519069ffffffffffffffffffff8216820361019557565b15612d4e57565b60405162461bcd60e51b815260206004820152601560248201527424b73b30b634b21037b930b1b6329030b739bbb2b960591b6044820152606490fd5b15612d9257565b60405162461bcd60e51b81526020600482015260116024820152705374616c65206f7261636c65206461746160781b6044820152606490fd5b604051633fabe5a360e21b81529060a090829060049082906001600160a01b03165afa8015610df9575f915f91612e14575b506101e190612e0d5f8413612d47565b1515612d8b565b91505060a0813d60a011612e63575b81612e3060a09383611351565b8101031261019557612e4181612d30565b506101e16020820151612e5b608060608501519401612d30565b509190612dfd565b3d9150612e23565b60405163095ea7b360e01b5f9081526001600160a01b03909316600452602483905290929160209060448180875af19260015f5114841615612eae575b50604052565b60018492941516612ec7573b15153d151616915f612ea8565b833d5f823e3d90fd5b92916040519163095ea7b360e01b5f5260018060a01b031660045260245260205f60448180875af19260015f5114841615612eae575060405256fea264697066735822122036d2bd3c66deabc1ae32f1ace7b37b02492a81d13a60f23993541629a52bbcf664736f6c63430008210033a2646970667358221220b7c1f55be10fbbb78ee17ad3af57e2ff86389e3c8aa34dc2010982677d2d235264736f6c63430008210033",
        "linkReferences": {}
    },
    "methodIdentifiers": {
        "allVaults(uint256)": "9094a91e",
        "createVault()": "5d12928b",
        "executionFee()": "40e9903b",
        "getAllVaults()": "97331bf9",
        "getUserVaults(address)": "e7f3c69c",
        "isVault(address)": "652b9b41",
        "protocolOwner()": "c1d6ba69",
        "protocolTreasury()": "803db96d",
        "updateExecutionFee(uint256)": "f5d06486",
        "updateProtocolOwner(address)": "2d91bbdb",
        "updateProtocolTreasury(address)": "926f86ce",
        "userVaults(address,uint256)": "9c841fef"
    },
    "id": 34
}