{
    "abi": [
        {
            "type": "constructor",
            "inputs": [
                {
                    "name": "_owner",
                    "type": "address",
                    "internalType": "address"
                },
                {
                    "name": "_feeRecipient",
                    "type": "address",
                    "internalType": "address"
                }
            ],
            "stateMutability": "nonpayable"
        },
        {
            "type": "receive",
            "stateMutability": "payable"
        },
        {
            "type": "function",
            "name": "allowAction",
            "inputs": [
                {
                    "name": "target",
                    "type": "address",
                    "internalType": "address"
                },
                {
                    "name": "selector",
                    "type": "bytes4",
                    "internalType": "bytes4"
                }
            ],
            "outputs": [],
            "stateMutability": "nonpayable"
        },
        {
            "type": "function",
            "name": "canExecute",
            "inputs": [
                {
                    "name": "strategyId",
                    "type": "uint256",
                    "internalType": "uint256"
                }
            ],
            "outputs": [
                {
                    "name": "",
                    "type": "bool",
                    "internalType": "bool"
                }
            ],
            "stateMutability": "view"
        },
        {
            "type": "function",
            "name": "createStrategy",
            "inputs": [
                {
                    "name": "conditions",
                    "type": "tuple[]",
                    "internalType": "struct StrategyVault.Condition[]",
                    "components": [
                        {
                            "name": "oracle",
                            "type": "address",
                            "internalType": "address"
                        },
                        {
                            "name": "operator",
                            "type": "uint8",
                            "internalType": "enum StrategyVault.Operator"
                        },
                        {
                            "name": "value",
                            "type": "uint256",
                            "internalType": "uint256"
                        }
                    ]
                },
                {
                    "name": "action",
                    "type": "tuple",
                    "internalType": "struct StrategyVault.Action",
                    "components": [
                        {
                            "name": "target",
                            "type": "address",
                            "internalType": "address"
                        },
                        {
                            "name": "selector",
                            "type": "bytes4",
                            "internalType": "bytes4"
                        },
                        {
                            "name": "amountIndex",
                            "type": "uint8",
                            "internalType": "uint8"
                        },
                        {
                            "name": "isPayable",
                            "type": "bool",
                            "internalType": "bool"
                        },
                        {
                            "name": "amountSource",
                            "type": "uint8",
                            "internalType": "enum StrategyVault.AmountSource"
                        },
                        {
                            "name": "value",
                            "type": "uint256",
                            "internalType": "uint256"
                        },
                        {
                            "name": "data",
                            "type": "bytes",
                            "internalType": "bytes"
                        },
                        {
                            "name": "allowances",
                            "type": "tuple[]",
                            "internalType": "struct StrategyVault.Allowance[]",
                            "components": [
                                {
                                    "name": "token",
                                    "type": "address",
                                    "internalType": "address"
                                },
                                {
                                    "name": "spender",
                                    "type": "address",
                                    "internalType": "address"
                                },
                                {
                                    "name": "amount",
                                    "type": "uint256",
                                    "internalType": "uint256"
                                }
                            ]
                        }
                    ]
                },
                {
                    "name": "maxAmount",
                    "type": "uint256",
                    "internalType": "uint256"
                },
                {
                    "name": "cooldown",
                    "type": "uint256",
                    "internalType": "uint256"
                },
                {
                    "name": "expiry",
                    "type": "uint256",
                    "internalType": "uint256"
                }
            ],
            "outputs": [
                {
                    "name": "",
                    "type": "uint256",
                    "internalType": "uint256"
                }
            ],
            "stateMutability": "nonpayable"
        },
        {
            "type": "function",
            "name": "depositETH",
            "inputs": [],
            "outputs": [],
            "stateMutability": "payable"
        },
        {
            "type": "function",
            "name": "depositToken",
            "inputs": [
                {
                    "name": "token",
                    "type": "address",
                    "internalType": "address"
                },
                {
                    "name": "amount",
                    "type": "uint256",
                    "internalType": "uint256"
                }
            ],
            "outputs": [],
            "stateMutability": "nonpayable"
        },
        {
            "type": "function",
            "name": "disallowAction",
            "inputs": [
                {
                    "name": "target",
                    "type": "address",
                    "internalType": "address"
                },
                {
                    "name": "selector",
                    "type": "bytes4",
                    "internalType": "bytes4"
                }
            ],
            "outputs": [],
            "stateMutability": "nonpayable"
        },
        {
            "type": "function",
            "name": "executeStrategy",
            "inputs": [
                {
                    "name": "strategyId",
                    "type": "uint256",
                    "internalType": "uint256"
                }
            ],
            "outputs": [],
            "stateMutability": "payable"
        },
        {
            "type": "function",
            "name": "executionBalance",
            "inputs": [],
            "outputs": [
                {
                    "name": "",
                    "type": "uint256",
                    "internalType": "uint256"
                }
            ],
            "stateMutability": "view"
        },
        {
            "type": "function",
            "name": "factory",
            "inputs": [],
            "outputs": [
                {
                    "name": "",
                    "type": "address",
                    "internalType": "address"
                }
            ],
            "stateMutability": "view"
        },
        {
            "type": "function",
            "name": "feeRecipient",
            "inputs": [],
            "outputs": [
                {
                    "name": "",
                    "type": "address",
                    "internalType": "address"
                }
            ],
            "stateMutability": "view"
        },
        {
            "type": "function",
            "name": "getExecutionFee",
            "inputs": [],
            "outputs": [
                {
                    "name": "",
                    "type": "uint256",
                    "internalType": "uint256"
                }
            ],
            "stateMutability": "view"
        },
        {
            "type": "function",
            "name": "getStrategieCount",
            "inputs": [],
            "outputs": [
                {
                    "name": "",
                    "type": "uint256",
                    "internalType": "uint256"
                }
            ],
            "stateMutability": "view"
        },
        {
            "type": "function",
            "name": "getStrategies",
            "inputs": [],
            "outputs": [
                {
                    "name": "",
                    "type": "tuple[]",
                    "internalType": "struct StrategyVault.Strategy[]",
                    "components": [
                        {
                            "name": "conditions",
                            "type": "tuple[]",
                            "internalType": "struct StrategyVault.Condition[]",
                            "components": [
                                {
                                    "name": "oracle",
                                    "type": "address",
                                    "internalType": "address"
                                },
                                {
                                    "name": "operator",
                                    "type": "uint8",
                                    "internalType": "enum StrategyVault.Operator"
                                },
                                {
                                    "name": "value",
                                    "type": "uint256",
                                    "internalType": "uint256"
                                }
                            ]
                        },
                        {
                            "name": "action",
                            "type": "tuple",
                            "internalType": "struct StrategyVault.Action",
                            "components": [
                                {
                                    "name": "target",
                                    "type": "address",
                                    "internalType": "address"
                                },
                                {
                                    "name": "selector",
                                    "type": "bytes4",
                                    "internalType": "bytes4"
                                },
                                {
                                    "name": "amountIndex",
                                    "type": "uint8",
                                    "internalType": "uint8"
                                },
                                {
                                    "name": "isPayable",
                                    "type": "bool",
                                    "internalType": "bool"
                                },
                                {
                                    "name": "amountSource",
                                    "type": "uint8",
                                    "internalType": "enum StrategyVault.AmountSource"
                                },
                                {
                                    "name": "value",
                                    "type": "uint256",
                                    "internalType": "uint256"
                                },
                                {
                                    "name": "data",
                                    "type": "bytes",
                                    "internalType": "bytes"
                                },
                                {
                                    "name": "allowances",
                                    "type": "tuple[]",
                                    "internalType": "struct StrategyVault.Allowance[]",
                                    "components": [
                                        {
                                            "name": "token",
                                            "type": "address",
                                            "internalType": "address"
                                        },
                                        {
                                            "name": "spender",
                                            "type": "address",
                                            "internalType": "address"
                                        },
                                        {
                                            "name": "amount",
                                            "type": "uint256",
                                            "internalType": "uint256"
                                        }
                                    ]
                                }
                            ]
                        },
                        {
                            "name": "maxAmount",
                            "type": "uint256",
                            "internalType": "uint256"
                        },
                        {
                            "name": "cooldown",
                            "type": "uint256",
                            "internalType": "uint256"
                        },
                        {
                            "name": "lastExecution",
                            "type": "uint256",
                            "internalType": "uint256"
                        },
                        {
                            "name": "expiry",
                            "type": "uint256",
                            "internalType": "uint256"
                        },
                        {
                            "name": "paused",
                            "type": "bool",
                            "internalType": "bool"
                        },
                        {
                            "name": "failureCount",
                            "type": "uint8",
                            "internalType": "uint8"
                        }
                    ]
                }
            ],
            "stateMutability": "view"
        },
        {
            "type": "function",
            "name": "getStrategy",
            "inputs": [
                {
                    "name": "strategyId",
                    "type": "uint256",
                    "internalType": "uint256"
                }
            ],
            "outputs": [
                {
                    "name": "",
                    "type": "tuple",
                    "internalType": "struct StrategyVault.Strategy",
                    "components": [
                        {
                            "name": "conditions",
                            "type": "tuple[]",
                            "internalType": "struct StrategyVault.Condition[]",
                            "components": [
                                {
                                    "name": "oracle",
                                    "type": "address",
                                    "internalType": "address"
                                },
                                {
                                    "name": "operator",
                                    "type": "uint8",
                                    "internalType": "enum StrategyVault.Operator"
                                },
                                {
                                    "name": "value",
                                    "type": "uint256",
                                    "internalType": "uint256"
                                }
                            ]
                        },
                        {
                            "name": "action",
                            "type": "tuple",
                            "internalType": "struct StrategyVault.Action",
                            "components": [
                                {
                                    "name": "target",
                                    "type": "address",
                                    "internalType": "address"
                                },
                                {
                                    "name": "selector",
                                    "type": "bytes4",
                                    "internalType": "bytes4"
                                },
                                {
                                    "name": "amountIndex",
                                    "type": "uint8",
                                    "internalType": "uint8"
                                },
                                {
                                    "name": "isPayable",
                                    "type": "bool",
                                    "internalType": "bool"
                                },
                                {
                                    "name": "amountSource",
                                    "type": "uint8",
                                    "internalType": "enum StrategyVault.AmountSource"
                                },
                                {
                                    "name": "value",
                                    "type": "uint256",
                                    "internalType": "uint256"
                                },
                                {
                                    "name": "data",
                                    "type": "bytes",
                                    "internalType": "bytes"
                                },
                                {
                                    "name": "allowances",
                                    "type": "tuple[]",
                                    "internalType": "struct StrategyVault.Allowance[]",
                                    "components": [
                                        {
                                            "name": "token",
                                            "type": "address",
                                            "internalType": "address"
                                        },
                                        {
                                            "name": "spender",
                                            "type": "address",
                                            "internalType": "address"
                                        },
                                        {
                                            "name": "amount",
                                            "type": "uint256",
                                            "internalType": "uint256"
                                        }
                                    ]
                                }
                            ]
                        },
                        {
                            "name": "maxAmount",
                            "type": "uint256",
                            "internalType": "uint256"
                        },
                        {
                            "name": "cooldown",
                            "type": "uint256",
                            "internalType": "uint256"
                        },
                        {
                            "name": "lastExecution",
                            "type": "uint256",
                            "internalType": "uint256"
                        },
                        {
                            "name": "expiry",
                            "type": "uint256",
                            "internalType": "uint256"
                        },
                        {
                            "name": "paused",
                            "type": "bool",
                            "internalType": "bool"
                        },
                        {
                            "name": "failureCount",
                            "type": "uint8",
                            "internalType": "uint8"
                        }
                    ]
                }
            ],
            "stateMutability": "view"
        },
        {
            "type": "function",
            "name": "isActionAllowed",
            "inputs": [
                {
                    "name": "target",
                    "type": "address",
                    "internalType": "address"
                },
                {
                    "name": "selector",
                    "type": "bytes4",
                    "internalType": "bytes4"
                }
            ],
            "outputs": [
                {
                    "name": "",
                    "type": "bool",
                    "internalType": "bool"
                }
            ],
            "stateMutability": "view"
        },
        {
            "type": "function",
            "name": "owner",
            "inputs": [],
            "outputs": [
                {
                    "name": "",
                    "type": "address",
                    "internalType": "address"
                }
            ],
            "stateMutability": "view"
        },
        {
            "type": "function",
            "name": "pauseStrategy",
            "inputs": [
                {
                    "name": "strategyId",
                    "type": "uint256",
                    "internalType": "uint256"
                }
            ],
            "outputs": [],
            "stateMutability": "nonpayable"
        },
        {
            "type": "function",
            "name": "recharge",
            "inputs": [],
            "outputs": [],
            "stateMutability": "payable"
        },
        {
            "type": "function",
            "name": "simulateStrategy",
            "inputs": [
                {
                    "name": "strategyId",
                    "type": "uint256",
                    "internalType": "uint256"
                }
            ],
            "outputs": [],
            "stateMutability": "view"
        },
        {
            "type": "function",
            "name": "tokenBalance",
            "inputs": [
                {
                    "name": "token",
                    "type": "address",
                    "internalType": "address"
                }
            ],
            "outputs": [
                {
                    "name": "",
                    "type": "uint256",
                    "internalType": "uint256"
                }
            ],
            "stateMutability": "view"
        },
        {
            "type": "function",
            "name": "withdrawETH",
            "inputs": [
                {
                    "name": "amount",
                    "type": "uint256",
                    "internalType": "uint256"
                }
            ],
            "outputs": [],
            "stateMutability": "nonpayable"
        },
        {
            "type": "function",
            "name": "withdrawToken",
            "inputs": [
                {
                    "name": "token",
                    "type": "address",
                    "internalType": "address"
                },
                {
                    "name": "amount",
                    "type": "uint256",
                    "internalType": "uint256"
                }
            ],
            "outputs": [],
            "stateMutability": "nonpayable"
        },
        {
            "type": "event",
            "name": "ActionAllowed",
            "inputs": [
                {
                    "name": "target",
                    "type": "address",
                    "indexed": true,
                    "internalType": "address"
                },
                {
                    "name": "selector",
                    "type": "bytes4",
                    "indexed": true,
                    "internalType": "bytes4"
                }
            ],
            "anonymous": false
        },
        {
            "type": "event",
            "name": "ActionDisallowed",
            "inputs": [
                {
                    "name": "target",
                    "type": "address",
                    "indexed": true,
                    "internalType": "address"
                },
                {
                    "name": "selector",
                    "type": "bytes4",
                    "indexed": true,
                    "internalType": "bytes4"
                }
            ],
            "anonymous": false
        },
        {
            "type": "event",
            "name": "ETHDeposited",
            "inputs": [
                {
                    "name": "user",
                    "type": "address",
                    "indexed": true,
                    "internalType": "address"
                },
                {
                    "name": "amount",
                    "type": "uint256",
                    "indexed": false,
                    "internalType": "uint256"
                }
            ],
            "anonymous": false
        },
        {
            "type": "event",
            "name": "ETHWithdrawn",
            "inputs": [
                {
                    "name": "user",
                    "type": "address",
                    "indexed": true,
                    "internalType": "address"
                },
                {
                    "name": "amount",
                    "type": "uint256",
                    "indexed": false,
                    "internalType": "uint256"
                }
            ],
            "anonymous": false
        },
        {
            "type": "event",
            "name": "StrategyCreated",
            "inputs": [
                {
                    "name": "strategyId",
                    "type": "uint256",
                    "indexed": true,
                    "internalType": "uint256"
                }
            ],
            "anonymous": false
        },
        {
            "type": "event",
            "name": "StrategyExecuted",
            "inputs": [
                {
                    "name": "strategyId",
                    "type": "uint256",
                    "indexed": true,
                    "internalType": "uint256"
                }
            ],
            "anonymous": false
        },
        {
            "type": "event",
            "name": "StrategyExecutionFailed",
            "inputs": [
                {
                    "name": "strategyId",
                    "type": "uint256",
                    "indexed": false,
                    "internalType": "uint256"
                }
            ],
            "anonymous": false
        },
        {
            "type": "event",
            "name": "VaultRecharged",
            "inputs": [
                {
                    "name": "amount",
                    "type": "uint256",
                    "indexed": false,
                    "internalType": "uint256"
                }
            ],
            "anonymous": false
        },
        {
            "type": "error",
            "name": "SafeERC20FailedOperation",
            "inputs": [
                {
                    "name": "token",
                    "type": "address",
                    "internalType": "address"
                }
            ]
        }
    ],
    "bytecode": {
        "object": "0x60c0346100ef57601f612d0938819003918201601f19168301916001600160401b038311848410176100f35780849260409485528339810103126100ef57610052602061004b83610107565b9201610107565b608091909152600480546001600160a01b0319166001600160a01b039092169190911790556002805460ff191660031790553360a052604051612bed908161011c82396080518181816102860152818161038901528181610418015281816104da0152818161085c015281816108bf0152818161091501528181610e8701528181610f6901526111b2015260a051818181610ca10152611d6e0152f35b5f80fd5b634e487b7160e01b5f52604160045260245ffd5b51906001600160a01b03821682036100ef5756fe6080604052600436101561001a575b3615610018575f80fd5b005b5f3560e01c80630e4f2546146101795780632bd420f9146101745780632f0261ba1461016f578063338b5dea1461016a57806346904840146101655780634cddae2814610160578063598faf361461015b5780636b0b9200146101565780637acd22ef14610151578063887a2f721461014c578063897293a4146101475780638a524fa7146101425780638da5cb5b1461013d5780639e281a9814610138578063b49a60bb14610133578063c45a01551461012e578063cc63604a14610129578063cfc0cc3414610124578063eedc966a1461011f578063f00611ee1461011a578063f14210a6146101155763f6326fb30361000e57610f58565b610e6d565b610e50565b610db6565b610d09565b610cd0565b610c8c565b610baa565b6108ee565b6108aa565b61083d565b61081b565b610619565b610577565b6104c5565b610403565b610378565b610350565b61025f565b61022e565b6101e4565b34610195575f3660031901126101955760205f54604051908152f35b5f80fd5b6001600160a01b0381160361019557565b6001600160e01b031981160361019557565b6040906003190112610195576004356101d481610199565b906024356101e1816101aa565b90565b3461019557602060ff6102226101f9366101bc565b9060018060a01b03165f526001845260405f209063ffffffff60e01b165f5260205260405f2090565b54166040519015158152f35b346101955760203660031901126101955761001860043561025a610250611d59565b6003541015610fd0565b612510565b346101955760403660031901126101955760043561027c81610199565b602435906102b4337f00000000000000000000000000000000000000000000000000000000000000006001600160a01b03161461101c565b6001600160a01b0316906102c9821515611054565b6102d4811515611090565b604051906323b872dd60e01b5f52336004523060245260445260205f60648180865af160015f5114811615610331575b6040919091525f606052155b61031657005b635274afe760e01b5f526001600160a01b031660045260245ffd5b6001811516610347573d15833b15151616610304565b503d5f823e3d90fd5b34610195575f366003190112610195576004546040516001600160a01b039091168152602090f35b5f366003190112610195576103b7337f00000000000000000000000000000000000000000000000000000000000000006001600160a01b03161461101c565b6103c23415156110cd565b6003543481018091116103fe576003557f56fc1ecd44d7a7b83281447c749d7fa51ff92f790eb5cf03fdb5e1d1a4cd6f576020604051348152a1005b611107565b3461019557610411366101bc565b90610446337f00000000000000000000000000000000000000000000000000000000000000006001600160a01b03161461101c565b6001600160a01b031661045a811515611128565b6001600160e01b031982169161049790610475841515611165565b825f52600160205260405f209063ffffffff60e01b165f5260205260405f2090565b805460ff191690557ffec4648dc7e3a6e411c303ae86d59e226a72ddeb5762319ac29d27511f01ca855f80a3005b34610195576104d3366101bc565b90610508337f00000000000000000000000000000000000000000000000000000000000000006001600160a01b03161461101c565b6001600160a01b031661051c811515611128565b6001600160e01b031982169161053790610475841515611165565b805460ff191660011790557fd092f291126171673a5c6bd81cb39fd6846fd29094022a0432518cf8e7f76f0f5f80a3005b90816101009103126101955790565b346101955760a03660031901126101955760043567ffffffffffffffff811161019557366023820112156101955780600401359067ffffffffffffffff8211610195573660246060840283010111610195576024359067ffffffffffffffff821161019557610615926105f1610605933690600401610568565b6044359060643592602460843595016111a4565b6040519081529081906020820190565b0390f35b60203660031901126101955760043560045460ff8160a01c166107e95760ff60a01b1916600160a01b1760045561064e611d59565b61065c816003541015610fd0565b61066582612510565b61066e82611630565b50905f806001840181906001610689825460ff9060d01c1690565b610692816109b1565b146107dd575b806106a56106b292612701565b546001600160a01b031690565b9060405190816106c58160038a01611bad565b03925af16106d1611c72565b90156107965750610763916107575f8080806009964260078801556107006106fb826003546116cc565b600355565b6107468280808061073461072d61072161072160045460018060a01b031690565b6001600160a01b031690565b9660011c90565b80965af1610740611c72565b50611cb1565b335af1610751611c72565b50611cf3565b01805461ff0019169055565b7f0c61996d0e102905c02e7d181cec9e73f0ba00f7b4f6164a9908275c566479e25f80a26004805460ff60a01b19169055005b805190816107d85760405162461bcd60e51b81526020600482015260126024820152711050d51253d397d0d0531317d1905253115160721b6044820152606490fd5b602001fd5b60028601549150610698565b60405162461bcd60e51b815260206004820152600a6024820152695265656e7472616e637960b01b6044820152606490fd5b34610195575f366003190112610195576020610835611d59565b604051908152f35b3461019557602036600319011261019557600961089b60043561088a337f00000000000000000000000000000000000000000000000000000000000000006001600160a01b03161461101c565b6108965f548210611dc2565b611630565b5001805460ff19166001179055005b34610195575f366003190112610195576040517f00000000000000000000000000000000000000000000000000000000000000006001600160a01b03168152602090f35b346101955760403660031901126101955760043561090b81610199565b60243590610943337f00000000000000000000000000000000000000000000000000000000000000006001600160a01b03161461101c565b6001600160a01b031690610958821515611054565b610963811515611090565b6040519063a9059cbb60e01b5f523360045260245260205f60448180865af160015f511481161561099b575b60409190915215610310565b6001811516610347573d15833b1515161661098f565b600311156109bb57565b634e487b7160e01b5f52602160045260245ffd5b906109d9826109b1565b52565b805180835260209291819084018484015e5f828201840152601f01601f1916010190565b90602080835192838152019201905f5b818110610a1d5750505090565b825180516001600160a01b039081168652602082810151909116818701526040918201519186019190915260609094019390920191600101610a10565b80516001600160a01b031682526020808201516001600160e01b031916908301526101e19160408281015160ff1690820152606082810151151590820152610aaa608083015160808301906109cf565b60a082015160a082015260e0610ad160c084015161010060c08501526101008401906109dc565b9201519060e0818403910152610a00565b90610100810182519061010083528151809152602061012084019201905f5b818110610b6e575050509060e080610b286101e19460208701518582036020870152610a5a565b9460408101516040850152606081015160608501526080810151608085015260a081015160a0850152610b6460c082015160c086019015159052565b015160ff16910152565b9091926020606060019260408751858060a01b03815116835284810151610b94816109b1565b8386015201516040820152019401929101610b01565b34610195575f366003190112610195575f54610bc581611e01565b90610bd36040519283611c50565b8082525f8080527f290decd9548b62a8d60345a988386fc84ba6bc95484008f6362f93160ef3e563602084015b838310610c6e57846040518091602082016020835281518091526040830190602060408260051b8601019301915f905b828210610c3f57505050500390f35b91936001919395506020610c5e8192603f198a82030186528851610ae2565b9601920192018594939192610c30565b600a6020600192610c7e85612067565b815201920192019190610c00565b34610195575f366003190112610195576040517f00000000000000000000000000000000000000000000000000000000000000006001600160a01b03168152602090f35b34610195576020366003190112610195576020610cee6004356120e7565b6040519015158152f35b9060206101e1928181520190610ae2565b3461019557602036600319011261019557610615610daa610da46004355f60e0604051610d3581611c17565b60608152604051610d4581611c17565b8381528360208201528360408201528360608201528360808201528360a0820152606060c082015260608382015260208201528260408201528260608201528260808201528260a08201528260c082015201526108965f548210611dc2565b50612067565b60405191829182610cf8565b346101955760203660031901126101955760246020600435610dd781610199565b6040516370a0823160e01b815230600482015292839182906001600160a01b03165afa8015610e4b57610615915f91610e1c575b506040519081529081906020820190565b610e3e915060203d602011610e44575b610e368183611c50565b810190611d3f565b5f610e0b565b503d610e2c565b611d4e565b34610195575f366003190112610195576020600354604051908152f35b3461019557602036600319011261019557600435610eb5337f00000000000000000000000000000000000000000000000000000000000000006001600160a01b03161461101c565b610ec0811515611090565b4760035481039081116103fe578111610f1c57610eec5f80808085335af1610ee6611c72565b50612135565b60405190815233907f94b2de810873337ed265c5f8cf98c9cffefa06b8607f9a2f1fbaebdfbcfbef1c90602090a2005b60405162461bcd60e51b8152602060048201526014602482015273496e73756666696369656e742062616c616e636560601b6044820152606490fd5b5f36600319011261019557610f97337f00000000000000000000000000000000000000000000000000000000000000006001600160a01b03161461101c565b610fa23415156110cd565b6040513481527f6c703791f399558807424f489ccd811c72b4ff0b74af547264fad7c646776df060203392a2005b15610fd757565b60405162461bcd60e51b815260206004820152601e60248201527f496e73756666696369656e7420657865637574696f6e2062616c616e636500006044820152606490fd5b1561102357565b60405162461bcd60e51b81526020600482015260096024820152682737ba1037bbb732b960b91b6044820152606490fd5b1561105b57565b60405162461bcd60e51b815260206004820152600d60248201526c24b73b30b634b2103a37b5b2b760991b6044820152606490fd5b1561109757565b60405162461bcd60e51b815260206004820152600e60248201526d125b9d985b1a5908185b5bdd5b9d60921b6044820152606490fd5b156110d457565b60405162461bcd60e51b815260206004820152600b60248201526a139bc8115512081cd95b9d60aa1b6044820152606490fd5b634e487b7160e01b5f52601160045260245ffd5b919082018092116103fe57565b1561112f57565b60405162461bcd60e51b815260206004820152600e60248201526d125b9d985b1a59081d185c99d95d60921b6044820152606490fd5b1561116c57565b60405162461bcd60e51b815260206004820152601060248201526f24b73b30b634b21039b2b632b1ba37b960811b6044820152606490fd5b93959293919291906111e0337f00000000000000000000000000000000000000000000000000000000000000006001600160a01b03161461101c565b6111eb42871161149c565b6111f68115156114e8565b611201851515611524565b61121d6001600160a01b0361121586611564565b16151561156e565b6020840161123e6001600160e01b0319611236836115b2565b1615156115bc565b61124661166d565b50506112525f546116be565b9261125c84611630565b50925f5b81811061147f575050506112c26112a2600184019261129d61128189611564565b85546001600160a01b0319166001600160a01b03909116178555565b6115b2565b825463ffffffff60a01b191660409190911c63ffffffff60a01b16178255565b6112eb6112d16040870161179b565b825460ff60c01b191660c09190911b60ff60c01b16178255565b60608501906113166112fc836117a9565b825460ff60c81b191690151560c81b60ff60c81b16178255565b61132d60808701916113278361171f565b906117b6565b600161135d60a08801359283600287015561135861134e60c08b018b6117da565b90600389016118a3565b61171f565b611366816109b1565b0361146c575061137861137d916117a9565b6119c3565b9493945b5f94600482019760e08601965b6113988888611a08565b905081101561140557806113ff6113bb6001936113b58c8c611a08565b906116d9565b6113d16113ca61072183611564565b1515611a3e565b6113ea6113e361072160208401611564565b1515611a8a565b6113f960408201351515611ad6565b8c611b3b565b0161138e565b50919397509195611444955060099450600584015560068301555f60078301556008820155016114398160ff198154169055565b805461ff0019169055565b807f019c06b860251593f8cc023cca35c7c482867df58804fd2963b3aebe5e7f8ef85f80a290565b61147791501561196c565b949394611381565b8061149661149060019385876116d9565b87611729565b01611260565b156114a357565b60405162461bcd60e51b815260206004820152601c60248201527f457870697279206d75737420626520696e2074686520667574757265000000006044820152606490fd5b156114ef57565b60405162461bcd60e51b815260206004820152600d60248201526c4e6f20636f6e646974696f6e7360981b6044820152606490fd5b1561152b57565b60405162461bcd60e51b8152602060048201526011602482015270125b9d985b1a59081b585e105b5bdd5b9d607a1b6044820152606490fd5b356101e181610199565b1561157557565b60405162461bcd60e51b8152602060048201526015602482015274125b9d985b1a59081858dd1a5bdb881d185c99d95d605a1b6044820152606490fd5b356101e1816101aa565b156115c357565b60405162461bcd60e51b815260206004820152601760248201527f496e76616c696420616374696f6e2073656c6563746f720000000000000000006044820152606490fd5b634e487b7160e01b5f52604160045260245ffd5b634e487b7160e01b5f52603260045260245ffd5b5f54811015611668575f808052600a919091027f290decd9548b62a8d60345a988386fc84ba6bc95484008f6362f93160ef3e5630191565b61161c565b5f54600160401b8110156116b957600181015f555f54811015611668575f808052600a919091027f290decd9548b62a8d60345a988386fc84ba6bc95484008f6362f93160ef3e5630191565b611608565b5f198101919082116103fe57565b919082039182116103fe57565b9190811015611668576060020190565b8054821015611668575f5260205f209060011b01905f90565b634e487b7160e01b5f525f60045260245ffd5b6003111561019557565b356101e181611715565b8054600160401b8110156116b957611746916001820181556116e9565b919091611796576040816117606001933561128181610199565b602081013561176e81611715565b611777816109b1565b845460ff60a01b191660a09190911b60ff60a01b161784550135910155565b611702565b3560ff811681036101955790565b3580151581036101955790565b906117c0816109b1565b815460ff60d01b191660d09190911b60ff60d01b16179055565b903590601e1981360301821215610195570180359067ffffffffffffffff82116101955760200191813603831361019557565b90600182811c9216801561183b575b602083101461182757565b634e487b7160e01b5f52602260045260245ffd5b91607f169161181c565b919091601f8311611856575b505050565b81831161186257505050565b5f5260205f206020601f830160051c921061189b575b81601f9101920160051c03905f5b82811015611851575f82820155600101611886565b5f9150611878565b90929167ffffffffffffffff81116116b9576118c9816118c3845461180d565b84611845565b5f601f82116001146119075781906118f89394955f926118fc575b50508160011b915f199060031b1c19161790565b9055565b013590505f806118e4565b601f1982169461191a845f5260205f2090565b915f5b87811061195457508360019596971061193b575b505050811b019055565b01355f19600384901b60f8161c191690555f8080611931565b9092602060018192868601358155019401910161191d565b1561197357565b60405162461bcd60e51b815260206004820152602260248201527f4554482076616c7565206f6e6c7920666f722070617961626c6520616374696f6044820152616e7360f01b6064820152608490fd5b156119ca57565b60405162461bcd60e51b8152602060048201526016602482015275416374696f6e206d7573742062652070617961626c6560501b6044820152606490fd5b903590601e1981360301821215610195570180359067ffffffffffffffff82116101955760200191606082023603831361019557565b15611a4557565b60405162461bcd60e51b815260206004820152601760248201527f496e76616c696420616c6c6f77616e636520746f6b656e0000000000000000006044820152606490fd5b15611a9157565b60405162461bcd60e51b815260206004820152601960248201527f496e76616c696420616c6c6f77616e6365207370656e646572000000000000006044820152606490fd5b15611add57565b60405162461bcd60e51b815260206004820152601860248201527f496e76616c696420616c6c6f77616e636520616d6f756e7400000000000000006044820152606490fd5b8054821015611668575f52600360205f20910201905f90565b8054600160401b8110156116b957611b5891600182018155611b22565b91909161179657604081611b726002933561128181610199565b611ba66020820135611b8381610199565b6001860180546001600160a01b0319166001600160a01b03909216919091179055565b0135910155565b5f9291815491611bbc8361180d565b9260018116908115611c045750600114611bd557505050565b90919293505f5260205f205f905b838210611bf05750500190565b600181602092548486015201910190611be3565b60ff191683525050811515909102019150565b610100810190811067ffffffffffffffff8211176116b957604052565b6060810190811067ffffffffffffffff8211176116b957604052565b90601f8019910116810190811067ffffffffffffffff8211176116b957604052565b3d15611cac573d9067ffffffffffffffff82116116b95760405191611ca1601f8201601f191660200184611c50565b82523d5f602084013e565b606090565b15611cb857565b60405162461bcd60e51b8152602060048201526013602482015272119959481d1c985b9cd9995c8819985a5b1959606a1b6044820152606490fd5b15611cfa57565b60405162461bcd60e51b815260206004820152601c60248201527f4578656375746f7220666565207472616e73666572206661696c6564000000006044820152606490fd5b90816020910312610195575190565b6040513d5f823e3d90fd5b6040516340e9903b60e01b81526020816004817f00000000000000000000000000000000000000000000000000000000000000006001600160a01b03165afa908115610e4b575f91611da9575090565b6101e1915060203d602011610e4457610e368183611c50565b15611dc957565b60405162461bcd60e51b815260206004820152601060248201526f496e76616c696420737472617465677960801b6044820152606490fd5b67ffffffffffffffff81116116b95760051b60200190565b908154611e2581611e01565b92611e336040519485611c50565b81845260208401905f5260205f205f915b838310611e515750505050565b60026020600192604051611e6481611c34565b60ff8654868060a01b038116835260a01c16611e7f816109b1565b83820152848601546040820152815201920192019190611e44565b6109d9826109b1565b9060405191825f825492611eb68461180d565b8084529360018116908115611f215750600114611edd575b50611edb92500383611c50565b565b90505f9291925260205f20905f915b818310611f05575050906020611edb928201015f611ece565b6020919350806001915483858901015201910190918492611eec565b905060209250611edb94915060ff191682840152151560051b8201015f611ece565b908154611f4f81611e01565b92611f5d6040519485611c50565b81845260208401905f5260205f205f915b838310611f7b5750505050565b60036020600192604051611f8e81611c34565b848060a01b038654168152848060a01b0385870154168382015260028601546040820152815201920192019190611f6e565b90604051611fcd81611c17565b82546001600160a01b0381168252604081901b6001600160e01b03191660208301529092839160e0916120629160039190612041906120389061201b60c082901c60ff1660ff1660408a0152565b61202f60c882901c60ff16151560608a0152565b60d01c60ff1690565b60808701611e9a565b600181015460a086015261205760028201611ea3565b60c086015201611f43565b910152565b90611edb60405161207781611c17565b60e06120df6009839661208981611e19565b855261209760018201611fc0565b6020860152600581015460408601526006810154606086015260078101546080860152600881015460a086015201546120d660ff8216151560c0860152565b60081c60ff1690565b60ff16910152565b5f90303b15610195576040519063178130dd60e11b825260048201525f81602481305afa9081612120575b5061211a5790565b50600190565b61212d9192505f90611c50565b5f905f612112565b1561213c57565b60405162461bcd60e51b8152602060048201526013602482015272115512081d1c985b9cd9995c8819985a5b1959606a1b6044820152606490fd5b1561217e57565b60405162461bcd60e51b815260206004820152600f60248201526e14dd1c985d1959de481c185d5cd959608a1b6044820152606490fd5b156121bc57565b60405162461bcd60e51b815260206004820152601060248201526f14dd1c985d1959de48195e1c1a5c995960821b6044820152606490fd5b156121fb57565b60405162461bcd60e51b815260206004820152600f60248201526e436f6f6c646f776e2061637469766560881b6044820152606490fd5b1561223957565b60405162461bcd60e51b815260206004820152601160248201527014dd1c985d1959de48191a5cd8589b1959607a1b6044820152606490fd5b1561227957565b60405162461bcd60e51b815260206004820152601260248201527110dbdb991a5d1a5bdb9cc81b9bdd081b595d60721b6044820152606490fd5b156122ba57565b60405162461bcd60e51b815260206004820152601060248201526f496e76616c69642063616c6c6461746160801b6044820152606490fd5b156122f957565b60405162461bcd60e51b81526020600482015260116024820152700a6cad8cac6e8dee440dad2e6dac2e8c6d607b1b6044820152606490fd5b1561233957565b60405162461bcd60e51b81526020600482015260126024820152711058dd1a5bdb881b9bdd08185b1b1bddd95960721b6044820152606490fd5b1561237a57565b60405162461bcd60e51b8152602060048201526012602482015271416374696f6e206e6f742070617961626c6560701b6044820152606490fd5b156123bb57565b60405162461bcd60e51b815260206004820152600c60248201526b115512081c995c5d5a5c995960a21b6044820152606490fd5b156123f657565b60405162461bcd60e51b815260206004820152601560248201527411551208195e18d959591cc81b585e105b5bdd5b9d605a1b6044820152606490fd5b1561243a57565b60405162461bcd60e51b815260206004820152601960248201527f5661756c7420756e646572636f6c6c61746572616c697a6564000000000000006044820152606490fd5b1561248657565b60405162461bcd60e51b8152602060048201526016602482015275092dce6eaccccd2c6d2cadce840ecc2ead8e8408aa8960531b6044820152606490fd5b156124cb57565b60405162461bcd60e51b815260206004820152601860248201527f416d6f756e742065786365656473206d6178416d6f756e7400000000000000006044820152606490fd5b61251c5f548210611dc2565b6125a161259c61252b83611630565b5092612597612578600986015461255161254c6125488360ff1690565b1590565b612177565b612560600888015442106121b5565b6120d6600788015480159081156126e8575b506121f4565b60ff61258f61258960025460ff1690565b60ff1690565b911610612232565b6127d5565b612272565b6125c3600382016125be60046125b7835461180d565b10156122b3565b611ea3565b9060208201519161264761264261263b60018501549561260e6125f08863ffffffff60e01b9060401b1690565b916001600160e01b031983166001600160e01b0319909116146122f2565b6001600160a01b0387165f9081526001602052604090209063ffffffff60e01b165f5260205260405f2090565b5460ff1690565b612332565b60d083901c60ff16612658816109b1565b8061267f5750611edb926005916126759160c01c60ff16906128a8565b91015410156124c4565b6001915061268c816109b1565b036126e457611edb916126a49060c81c60ff16612373565b6126c460056002830154926126ba8415156123b4565b01548211156123ef565b6126dd47600354906126d882821015612433565b6116cc565b101561247f565b5050565b6126f8915060068a01549061111b565b4210155f612572565b905f5b6003830180548210156127cf578161271b91611b22565b508054909190612733906001600160a01b0316610721565b6001830154604051636eb1769f60e11b81523060048201526001600160a01b0391821660248201819052909392916020908590604490829086165afa908115610e4b576003956001955f936127ac575b506002015480921061279b575b505050019050612704565b6127a492612923565b5f8080612790565b60029193506127c89060203d8111610e4457610e368183611c50565b9290612783565b50509050565b5f548110156128a3576127e790611630565b508054905f5b8281106127fc57505050600190565b61280681836116e9565b5080549061282961281f6001600160a01b038416612a77565b9260a01c60ff1690565b612832816109b1565b80612853575060010154111561284c576001905b016127ed565b5050505f90565b61285c816109b1565b60018103612877575060010154101561284c57600190612846565b806128836002926109b1565b14612893575b5050600190612846565b600101540361284c575f80612889565b505f90565b90611fe060ff82169160051b1690808204602014901517156103fe5780600401806004116103fe578251602483018092116103fe57106128ea57016024015190565b60405162461bcd60e51b8152602060048201526011602482015270417267206f7574206f6620626f756e647360781b6044820152606490fd5b60405163095ea7b360e01b5f9081526001600160a01b03841660045260248590529193929160209060448180885af19060015f51148216156129cd575b6040521561296d57505050565b6129778184612b17565b156129af57906129879183612b7c565b1561298f5750565b635274afe760e01b5f9081526001600160a01b0391909116600452602490fd5b635274afe760e01b5f9081526001600160a01b038416600452602490fd5b90843b15153d15161690612960565b519069ffffffffffffffffffff8216820361019557565b156129fa57565b60405162461bcd60e51b815260206004820152601560248201527424b73b30b634b21037b930b1b6329030b739bbb2b960591b6044820152606490fd5b15612a3e57565b60405162461bcd60e51b81526020600482015260116024820152705374616c65206f7261636c65206461746160781b6044820152606490fd5b604051633fabe5a360e21b81529060a090829060049082906001600160a01b03165afa8015610e4b575f915f91612ac0575b506101e190612ab95f84136129f3565b1515612a37565b91505060a0813d60a011612b0f575b81612adc60a09383611c50565b8101031261019557612aed816129dc565b506101e16020820151612b076080606085015194016129dc565b509190612aa9565b3d9150612acf565b60405163095ea7b360e01b5f9081526001600160a01b03909316600452602483905290929160209060448180875af19260015f5114841615612b5a575b50604052565b60018492941516612b73573b15153d151616915f612b54565b833d5f823e3d90fd5b92916040519163095ea7b360e01b5f5260018060a01b031660045260245260205f60448180875af19260015f5114841615612b5a575060405256fea2646970667358221220aac6ee94e1688e81867b9539f765502414f8df293d5f242fdab120dda4aa02f064736f6c63430008210033",
        "linkReferences": {}
    },
    "methodIdentifiers": {
        "allowAction(address,bytes4)": "6b0b9200",
        "canExecute(uint256)": "cc63604a",
        "createStrategy((address,uint8,uint256)[],(address,bytes4,uint8,bool,uint8,uint256,bytes,(address,address,uint256)[]),uint256,uint256,uint256)": "7acd22ef",
        "depositETH()": "f6326fb3",
        "depositToken(address,uint256)": "338b5dea",
        "disallowAction(address,bytes4)": "598faf36",
        "executeStrategy(uint256)": "887a2f72",
        "executionBalance()": "f00611ee",
        "factory()": "c45a0155",
        "feeRecipient()": "46904840",
        "getExecutionFee()": "897293a4",
        "getStrategieCount()": "0e4f2546",
        "getStrategies()": "b49a60bb",
        "getStrategy(uint256)": "cfc0cc34",
        "isActionAllowed(address,bytes4)": "2bd420f9",
        "owner()": "8da5cb5b",
        "pauseStrategy(uint256)": "8a524fa7",
        "recharge()": "4cddae28",
        "simulateStrategy(uint256)": "2f0261ba",
        "tokenBalance(address)": "eedc966a",
        "withdrawETH(uint256)": "f14210a6",
        "withdrawToken(address,uint256)": "9e281a98"
    },
    "id": 33
}